S0200000617672313238646134382D75736172742D6578616D706C652E737265637A
S11300000C9476000C948D000C948D000C948D004F
S11300100C948D000C948D000C948D000C948D0028
S11300200C948D000C948D000C948D000C948D0018
S11300300C948D000C948D000C948D000C948D0008
S11300400C948D000C948D000C948D000C948D00F8
S11300500C948D000C948D000C948D000C948D00E8
S11300600C948D000C948D000C948D000C948D00D8
S11300700C948D000C948D000C948D000C948D00C8
S11300800C948D000C948D000C948D000C948D00B8
S11300900C948D000C948D000C948D000C948D00A8
S11300A00C948D000C948D000C948D000C948D0098
S11300B00C948D000C948D000C948D000C948D0088
S11300C00C948D000C948D000C948D000C948D0078
S11300D00C948D000C948D000C948D000C948D0068
S11300E00C948D000C948D000C948D0011241FBE73
S11300F0CFEFCDBFDFE7DEBF10E4A0E0B0E4EAEB72
S1130100F1E000E00BBF02C007900D92A031B107EF
S1130110D9F70E94CB000C94DB000C940000E0E4BF
S1130120F4E081E0818382E08283E0E2F8E083E826
S113013096E08087918783E08783868180648683C5
S11301400895E0E2F8E0948195FFFDCF80932208C2
S11301500895EF92FF920F931F93CF93DF938C0137
S11301607C01C0E0D0E006C0F70181917F010E94CC
S1130170A1002196F80101900020E9F73197E01BD6
S1130180F10BCE17DF0780F3DF91CF911F910F9111
S1130190FF90EF9008950E948F0080E090E40E9409
S11301A0A9002FEF84E39CE0215080409040E1F7C8
S10D01B000C00000F2CFF894FFCF66
S11301BA48656C6C6F20576F726C64210D0A0000DD
S9030000FC
